:080000000C943A000C9400007E
:100008000C9400000C9400000C9400000C94000068
:100018000C9400000C9400000C9400000C94000058
:100028000C9400000C9400000C9400000C94000048
:100038000C9400000C9400000C9400000C94000038
:100048000C9400000C9400000C94000001020408B9
:100058001020408006005B004F0066006D007C00A9
:1000680007007F000F0060015C000000F894EE2795
:10007800ECBBF1E0FBBFEBBFE5BF8DE0A2E0BB2727
:10008800ED938A95E9F780E094E0A0E6ED93019777
:10009800E9F7ECE6F0E085919591009761F0A5917C
:1000A800B59105901590BF01F00105900D9201974B
:1000B800E1F7FB01F0CFEFE5EDBFE4E0EEBFC0E60E
:1000C800D1E00C946700E0E0EBBBEFEFEABBE0E0C7
:1000D800E8BBE7BBE5BBEFEFE4BBE0E0E2BBE1BBBD
:1000E800E3BFE2BFECBFEFBDEEBDEDBDECBDE7BDCC
:1000F800E6BDEBBDEABDE9BDE8BDE2BDE5BDE4BDD9
:10010800E3BDE5BFE4BFE9BFEAB9E0E8E8B9E0E08C
:10011800E0BFE6B9EDB9E6BF44245524E7E0F0E0D6
:10012800E415F50514F123D0A8EEB3E00E94CA0047
:10013800E7E0F0E0E415F505A1F4E6E0F0E02F01D2
:100148000024401450046CF012D000240414050458
:1001580024F4A8EEB3E00E94CA00F20131972F01FF
:10016800EFCFF20131962F01D9CFD6CFFFCFF201D1
:10017800EC5AFF4F04900BBAF201A0E6B1E0EE0F83
:10018800FF1FAE0FBF1FEC91E5BB0895109639F025
:1001980080ED97E00197F1F7A8951197C9F70895B1
:00000001FF
